S00C00005A425F48412E73333764
S214000000C01A0020999D0100393A00003D3A0000D0
S214000010A70B0000000000000000FFFF54000000D7
S21400002004180F00000000000000000000000000A0
S21400003000000000000000000000000000000000BB
S214000040000000000000000000000000A701000003
S20800005000000000A7
S214000054C01A0020999D0100393A00003D3A00007C
S214000064A70A0A010002000004180FACA067A70143
S2140000740000000000000000000000000000000077
S2140000840000000000000000000000000000000067
S2140000940000000000000000FFFFFFFFFFFFFFFF5F
S2140000A4FFFFFFFF006007000000000000000000E4
S2140000B4FFFFFFFFFFFFFFFF8000000000000000BF
S2140000C40000000000000000000000000000000027
S2140000D40000000000000000DC4F0020DC4F002081
S2140000E4C01A0020949E0300601D030060110020C7
S2100000F42C11002000E0070000000000B7
S214000200C01A0020999D0100393A00003D3A0000CE
S214000210E5860000413A0000493A0000979D01003B
S214000220979D0100979D0100979D0100979D0100F5
S2140002304D3A0000979D0100979D0100979D010093
S214000240C03A0000C03A0000C03A0000C03A0000C1
S214000250C03A000089560000B9630000C03A0000AA
S214000260C03A0000C03A00008D54000065B100009E
S214000270C03A0000C03A0000C03A0000C03A000091
S214000280C03A0000C03A0000C03A0000979D010046
S214000290C03A0000E54C0000C03A0000C03A00003A
S2140002A0C03A0000E54D0000BD4D0000C03A000019
S2140002B0C03A0000C03A0000C03A0000697701006A
S2140002C0F5760100F1760100316E010065770100D8
S2140002D0F976010019770100FD760100979D01006F
S2140002E0AD770100C03A0000C03A0000213D000092
S2140002F0C03A0000C03A0000C03A0000979D0100D6
S214000300C03A0000C03A0000C03A0000C03A000000
S214000310C03A0000C03A0000C03A0000C03A0000F0
S214000320C03A0000C03A0000C03A0000C03A0000E0
S208000330C03A0000CA
S214000334F8B500BFF8BC08BC9E467047F8B500BFC9
S214000344F8BC08BC9E46704710B5054C237833B9F4
S214000354044B13B1044800E000BF0123237010BD12
S214000364C8230020000000008495030008B5034B52
S2140003741BB10349034800E000BF08BD00000000AD
S214000384CC23002084950300154B002B08BF134B89
S2140003949D46A3F5803A00218B460F461348144A1F
S2140003A4121A31F0B7FC0F4B002B00D098470E4BB7
S2140003B4002B00D098470020002104000D000D48B3
S2140003C4002802D00C4800E000BF31F065FC200095
S2140003D429000BF0EFF831F04BFC00BF00000800DA
S2140003E4C01A00200000000000000000C8230020FF
S2140003F4DC4F0020000000000000000013B5044697
S2140004042D4901200EF08EFC042C53D8DFE804F0AE
S214000414031C2C314100294901200EF083FC4FF4C3
S2140004249673032200930521002000F0B7FF0123F2
S214000434234A1370234A13704FF47A71224802B089
S214000444BDE810401EF08EBA02221E4B04211A701C
S2140004544FF4967303220093002000F09FFF1B497D
S21400046401200EF05FFCE7E70024194B19491C70C5
S214000474D2E7194901200EF055FC4FF49673032277
S21400048400930521002000F089FF02220D4B1A700C
S214000494D2E70B4B1B786BB14FF496730322009391
S2140004A40121002000F07AFF0322064B40F6B83103
S2140004B41A70C3E702B010BD1F1E0300341E0300EB
S2140004C4EC230020ED23002064400020471E030098
S2140004D480400020591E03006E1E030013B5013928
S2140004E40446042952D8DFE801F00328425F690075
S2140004F4A0B93F4901200EF015FC0421204600F067
S21400050423FF0121084600F0D1FB012223461146B1
S214000514104602B0BDE8104000F028BC3549012062
S2140005240EF000FC0421012000F00EFF0121022041
S21400053402B0BDE8104000F0B9BB78B92E490120DE
S2140005440EF0F0FB2146012000F0B0FB204600F040
S214000554A9FE0121234622460846DAE72749012058
S2140005640EF0E0FB012000F09DFE0021DFE778B9E5
S214000574234901200EF0D6FB012007F0B5FF032225
S214000584C82311460093012000F008FF02B010BDF6
S2140005941C4901200EF0C6FB012007F0DFFEC8232D
S2140005A4032200930721EEE730B91749012002B071
S2140005B4BDE810400EF0B6BB1449F7E708B9144975
S2140005C4F4E7144901200EF0ADFBC8230222009381
S2140005D40121002000F0E2FE032240F6B8310E4B63
S2140005E40E481A7002B0BDE810401EF0BBB900BF3A
S2140005F4A61D0300B21D0300BE1D0300CB1D030091
S214000604D71D0300E31D0300EF1D0300FB1D0300BD
S214000614071E0300131E0300ED2300206440002081
S2140006240B39042910D8DFE801F00307090B0D0085
S214000634064901200EF076BB0549FAE70549F8E7B6
S2140006440549F6E70549F4E7704700BF791D03003E
S214000654821D03008B1D0300941D03009D1D0300D3
S21400066408B5154901200EF05DFB00F03FFE134966
S214000674134800F037FC134800F018F912481EF02F
S21400068465F900F05DFD00F04BFF00F081FFF0EE31
S214000694000A9FED0E1AB0EE600A00F0CDFC4FF48F
S2140006A47A710B481EF05EF9BDE808404FF47A7183
S2140006B408481EF057B900BFAF1E0300E10400004F
S2140006C42506000001040000644000206F12833AEF
S2140006D45C4000207840002037B500221E4B1F4C9B
S2140006E41A702378032B13D8DFE803F002141B22B6
S2140006F40BF054FE054648B9C82303220093012193
S21400070400F04CFE164805701EF020F902232370F4
S21400071403B030BD0223237003B0BDE8304000F0C0
S2140007247DBA01200F4903B0BDE830400EF0FABA96
S214000734022323700BF032FE40B100F006FB19F0E2
S214000744FFFE03B0BDE8304021F08AB903B0BDE82F
S214000754304003F071BC00BF64400020ED2300204D
S21400076480400020C91E0300002310B5054C2370EA
S21400077400F0A2F82046BDE8104042F210711EF0C8
S214000784F1B800BF804000200022164B10B51A7046
S21400079400F038FD144C154B0146186023681B1AEC
S2140007A4002BB8BF5B421E2B10DD2060032000F038
S2140007B496FA22680E4901200EF0B4FA2368B3F5BF
S2140007C4FA7F0AD90221012000F0BEFDBDE81040E0
S2140007D442F2107103481EF0C5B8012000F062FD15
S2140007E4F4E700BF5C400020E8230020E423002058
S2140007F4601D0300002370B50C4C237000F036FF18
S214000804064600F049FF05460146042000F082FA39
S2140008142B463246064901200EF084FA2046BDE8EF
S214000824704042F210711EF09DB800BF7840002060
S214000834821E030010B5084901200EF073FA002347
S214000844064C237001F076FEC1B249002046BDE88E
S21400085410401EF087B800BFB91E03007040002089
S2140008641FB501240022104B06211A70204600945E
S2140008740DF10F030DF06DF820B99DF80F1020460A
S21400088400F014FA01230022009306210DF10F0351
S21400089402200DF05EF820B99DF80F10022000F03B
S2140008A405FA04B010BD00BF70400020014B18606C
S2140008B4704700BFF023002008B50BF06FFD30B979
S2140008C4BDE808404FF4FA6101481EF04BB808BD75
S2140008D498400020002208B5054B1A700BF05EFD08
S2140008E428B909F037F9034A13680133136008BDC1
S2140008F498400020F423002038B505461F490120FF
S2140009040EF010FA902D15D11D4B1E4C186858B1D8
S21400091409F060F923682BB1022098471A49012090
S2140009240EF000FA002038BD2368002BFAD0984752
S2140009341649F4E70BF032FD044698B9114B1B68D0
S2140009442BB104209847124901200EF0EBF9942DA0
S214000954E8D1104901200EF0E5F90A4B01201B6886
S2140009649847DFE70328F2D10B4901200EF0DAF9A5
S214000974044B20461B689847E9E700BFD41E0300D3
S214000984F4230020F0230020F01E0300051F0300BC
S214000994181F0300401F03002C1F030043685888D9
S2140009A448F20503C31A584258417047F8B503681D
S2140009B4C47C0546077D5A881D4901205E790EF0E1
S2140009C4B1F98CBBAA89791C8A422FD3A868C55D65
S2140009D40DF009FD2A460346164901200EF0A2F939
S2140009E4012E09D14F2D09D9134930460EF09AF934
S2140009F40221204600F0A8FC2046F8BD272D05D984
S214000A040E4930460EF08EF93146F2E72DB10C4908
S214000A1430460EF087F90421EBE7304609490EF01C
S214000A2481F9284600F03EFC0024E5E70124E3E7CC
S214000A34521F0300631F03009F1F0300A91F030028
S214000A44B11F0300BA1F03002DE9FF410025074626
S214000A542C464FF6FF78EEB2304619F071FB40454F
S214000A640DD06946304619F073FB9DF80130BB4241
S214000A7405D19DF80030012B04BF0134E4B20135E2
S214000A84032DE8D1204604B0BDE8F0812DE9F341FA
S214000A940368C57C1F795C79B0F806800646CDE904
S214000AA4005823463A46384901200EF03BF92DB14A
S214000AB4012D3FD0002002B0BDE8F081334901206B
S214000AC40EF030F9367976B1022EF3D13049012092
S214000AD40EF028F92946284600F036FC294601205F
S214000AE400F032FCE6E7012C1AD1304600F0DAFBBF
S214000AF43146204600F0DAF82046FFF7A5FF2549E0
S214000B04024620460EF00EF92046FFF79DFF002809
S214000B14D0D0434632462146384600F027F9C9E786
S214000B24022CC7D1012000F0BDFB3146204600F060
S214000B34BDF8BFE7184928460EF0F4F8367946B1F2
S214000B44022EB7D1124928460EF0ECF83146284654
S214000B54C6E7012C10D10421304600F0F5FB2046F0
S214000B64214600F0A3F82046FFF76EFF0028A1D028
S214000B74434622462146CFE7022C9BD10421284631
S214000B8400F0E2FB2946D1E7C31F0300242003003C
S214000B943B2003003120030045200300827B08B578
S214000BA42AB103685B88062B03D0082B04D00020E8
S214000BB408BDFFF76BFFFAE7FFF7F8FEF7E700005C
S214000BC430B51C4600230546104691B08DF80D300E
S214000BD48DF80E309DF850308DF80C1022460146E4
S214000BE404A88DF80F30043431F089F803AB009371
S214000BF40194044B0122294610200DF055F811B03B
S214000C0430BD00BFAA38030008B501210DF0D2F8A4
S214000C14BDE80840002108460DF0AAB870B58AB0B1
S214000C2406AC26461F4B03F1080225461868596889
S214000C34083303C593422C46F7D1012418681B7960
S214000C4428602B71184B8DF80F4018681B79049098
S214000C548DF814300BF0A2FB022820D142250D2378
S214000C643246052100200095FFF7AAFF2046FFF72D
S214000C74CBFF052304AA042100200095FFF7A0FF5C
S214000C842046FFF7C1FF2023002000930DF10F023A
S214000C9423462146FFF794FF2046FFF7B5FF0AB028
S214000CA470BD00BF512003005E2003007FB51026F0
S214000CB4054604AC04F8011D2246012300210096D3
S214000CC40620FFF77DFF2846FFF79EFF0096234683
S214000CD40022062128460CF0EBFD04B070BD7FB55B
S214000CE42326054604AC44F8041D224604230021AA
S214000CF400964FF48060FFF763FF2846FFF784FFF3
S214000D040096234600224FF4806128460CF0D0FD5E
S214000D1404B070BD7FB52326054604AC44F8041D14
S214000D24224604230021009640F20240FFF748FFC3
S214000D342846FFF769FF00962346002240F2024148
S214000D4428460CF0B5FD04B070BD1FB50223002084
S214000D5400934FF48A5203AB48F234018DF80D0029
S214000D6401F03CFE05B05DF804FB00002DE9F04FF1
S214000D748246894615469B460026DFF8C48085B021
S214000D84F4B26946204619F0E3F90746204619F0FE
S214000D94D7F9044667B99DF801204A450BD19DF85A
S214000DA40430534507D1584505D10136032EE7D103
S214000DB405B0BDE8F08F4FF6FF739C42F5D0231DB7
S214000DC49BB2012BF1D94A45EFD1BDF80270062F2C
S214000DD4EBD1012D19D1184928460DF0A3FF43463F
S214000DE42A46394628460CF05FFF9DF804109DF805
S214000DF401000CF0DFFF214600200CF0B9FF294665
S214000E049DF80100FFF752FFCFE70C4901200DF0D3
S214000E1489FF43460022394601200CF045FF9DF821
S214000E2404109DF801000CF0C5FF214600200CF0CC
S214000E349FFF0021E4E700BF632003007A2003003D
S214000E44CB210300F8B5234C636883422FD0636933
S214000E5498422ED10125EDB22D0163195F68302327
S214000E64625D1D4853430022164618440368FB403F
S214000E7403F001030168F94001F0010C63451AD13F
S214000E840132052AF6D1621982F808C0B3B9537A3A
S214000E9401335372137B13B910481DF057FD00231A
S214000EA401222C44A37263732273E372F8BD0025F7
S214000EB4D1E7FF25D0E700226346DBE70123084895
S214000EC4D372067016734FF4FA71BDE8F8401DF03D
S214000ED449BD00BF581C002014C00340A040002099
S214000EE4A84000202DE9F74307460E46012503F0E7
S214000EF447FF104CDFF8489004F120080023012235
S214000F046168207805F0BEFF4946207903F046FF65
S214000F14626814F8100BCDE900550123114605F05C
S214000F246BFF4445EAD1044B1F60044B1E6003B0BC
S214000F34BDE8F083581C0020F8230020FC23002082
S214000F44490E00002DE9F84300241A4B4FF005081B
S214000F541C704FF001092346174D184FEE7826B340
S214000F646B780133DBB2042B84BF00222A703A6804
S214000F746B7088BF85F804905AB1B3FBF8F101EBA7
S214000F8481001B1A13F0FF0F03D10A31C9B22046A1
S214000F949047103534B156B1BDE8F843C82105482A
S214000FA41DF0E0BC01243346D8E71E46F1E7BDE851
S214000FB4F88300BFA0400020611C0020F823002016
S214000FC42DE9F0410025A846174B184C184E194F2A
S214000FD41D70E37AABB133683BB1627BE8B2B2B959
S214000FE4617A0A2928BF1121984784F80A8084F870
S214000FF4098084F80C8084F80B8084F8088084F8D0
S2140010040D8010340DB1BDE8F0810125E1E7A17A29
S2140010143B681D299FBF0522B1FBF2F10A31C9B214
S21400102488BF1121E0E700BFA8400020581C00201C
S214001034FC230020F8230020044B83ED000A044B15
S214001044C3ED000A034B83ED001A7047944000205A
S214001054584000206C4000202DE9F8432B4D2C4BC3
S2140010642DED048BD3ED007AD5ED008A78EEA77AC1
S214001074284C88EEA79AD4ED007A30EE670AB0EED4
S214001084678AA9EE008A77EEC87AF0EEE77A224BF2
S21400109417EE900A83ED009A204B83ED008A30F019
S2140010A4D7F81F4B064618680F4630F0D1F80246AC
S2140010B40B463046394630F023F9064619EE100A38
S2140010C40F4630F0C5F802460B46002015492FF0AF
S2140010D45FFF804618EE900A894630F0B9F802465B
S2140010E40B464046494630F00BF902460B4630465E
S2140010F439462FF04FFF30F0DBFBB0EE480A84EDA4
S214001104008ABDEC048B2860BDE8F88358400020B4
S21400111494400020904000208C400020884000200E
S2140011246C4000200000F03F07EE900A08B5B8EEC9
S214001134670AFFF791FFFCEEC07A17EE900A08BD27
S214001144F0B52B4E8FB008AD00240FCE03270FC585
S21400115496E80300012685E80300264DCDE90344FE
S2140011642846CDE9054407948DF80E708DF808607E
S2140011748DF809408DF80A408DF80B4006F0EEF81D
S2140011840221052005F0E8FB022322461A492846D8
S2140011948DF8173006F058F923468DF8190000909C
S2140011A4224642F2107128468DF8237006F064F940
S2140011B404238DF82130A5238DF8250008AA05A957
S2140011C428468DF809308DF80E408DF8086006F034
S2140011D477F902AA03A9284606F080F8074AD2F847
S2140011E4283343F48033C2F828330FB0F0BD00BF71
S2140011F4942003000040004A40420F0000C0034011
S2140012040000000007B500221E4B1A7001221E4B78
S214001214DA605A6902F4A072B2F5807FF9D11A49ED
S214001224684606F0A3FA0098184B1860FFF77CFF90
S214001234174B184A1860184B03FB0023B3FBF0F057
S214001244164B186018682FF0E1FF9FED0A1B41EC5F
S214001254100B2DF0BFFA09A3D3E9002351EC100BB1
S21400126430F04EF830F0FCFA0D4B1860186803B0F6
S2140012745DF804FB666666666666F6BF00000000F8
S214001284D8227E41B44000200040004A08240020B2
S21400129400240020408AF701F0D8FFFFB040002069
S2140012A4042400204823584301230E4970B53025F2
S2140012B40A18085C51680C4C03FA01F641F2100156
S2140012C405FB00404650107ED66905FB004003FA35
S2140012D406F6465092F83000526B934005FB0042E7
S2140012E4535070BD781C002000C0034070B5124DEA
S2140012F400242E462919285D002304224968183440
S21400130405F0C0FD482CF5D100243019C16C00232B
S214001314042290F84800183405F0B4FD482CF4D1A3
S2140013240020FFF7BFFF0120FFF7BCFF034B044A72
S2140013341A60044A5A6070BD781C0020FC400020E5
S214001344F4400020BC4000204823124A2DE9F04116
S21400135403FB002001270022302641F2100C42F243
S214001364100E0D4D0378446806FB035341FA02F849
S21400137418F0010F07FA04F402F1010214BF43F84F
S2140013840E4043F80C40032A00F11800EAD1BDE8E9
S214001394F08100BF781C002000C0034030B418243D
S2140013A4084D04FB00540125E360029BAA40236118
S2140013B4054B22752572617253F8200030BC1DF06F
S2140013C4C5BA00BFC4400020FC40002018222DE906
S2140013D4F047404D044602FB0052137D3E49002B65
S2140013E459D013F0010F4FF0480332D003FB00131B
S2140013F44FF0010E0021302741F2100842F2100986
S21400140492F809C0354E1A78586807FB02624CFAFF
S21400141401FA1AF0010F0EFA00F001F1010114BFEF
S21400142442F8090042F80800032903F11803EAD138
S214001434182303FB0453D968294B53F824001DF0E2
S21400144491FA182303FB0454237D013B2375BDE85E
S214001454F0874343C818CE5C01234FF0300C416834
S2140014641E4F03FA01FE41F210010CFB067646F805
S21400147401E090F818E0C6690CFB0E7E03FA06F647
S2140014844EF8016090F83060406B83400CFB0670A9
S21400149443501169D0E7137248235C430123302577
S2140014A40A19085D51680D4C03FA01F641F2100161
S2140014B405FB00404650107ED66905FB004003FA43
S2140014C406F6465092F83000526B934005FB0042F5
S2140014D45350BCE7C4400020781C002000C00340E2
S2140014E4FC4000200020044B1870044B1B7A012B90
S2140014F401D1FFF76BBF7047F4400020C4400020C2
S2140015040022054B1A70054B93F82000012801D1E0
S214001514FFF75CBF704700BFBC400020C4400020FB
S21400152430B585B06C46164B164D0FCB84E80F00CD
S21400153401230B221946184605F0A4FC01230B22AE
S2140015441846002105F09EFC0F4B1048D3F8A01453
S214001554014041F00111C3F8A014D3F89C2421469D
S214001564024042F00102C3F89C2403222846C3F832
S214001574982405F00FFD1023AB6005B030BD00BF06
S214001584AC2003000000014A00C00340FCFFF0FF4B
S2140015944CF6FC1230B5184B89B0039308AB23F80D
S2140015A41C2D04930223ADF8143002AB06930323D8
S2140015B403A91248ADF81C3005F01AFE04460F4D78
S2140015C4012C13D022460E4901200DF0ABFB9DF8EA
S2140015D408200CB9142A03D00A4901200DF0A2FBF6
S2140015E4094901200DF09EFB09B030BD284605F0E0
S2140015F4F3FC0446E4E700BF800004000000014A50
S214001604BC200300CC200300F3200300F0B5154BE8
S21400161487B000AF7B6007F1180303F8181DBB60A2
S2140016240123BB810223073202F4FC72ADEB020DE8
S2140016340546391D0C48C7F810D0BB826C4605F029
S214001644D7FD094E012808D00120227863781C377C
S21400165403EB02232B60BD46F0BD304605F0BCFC10
S214001664F0E700BF800004000000014A07B502222C
S214001674E52101A8FFF7CAFF50B143F2D403019A4B
S214001684534364221B0CA3F51673B3FBF2F30193C6
S214001694019803B05DF804FB07B50222E02101A817
S2140016A4FFF7B4FF58B144F2A443019A53436422AB
S2140016B41B0CA3F592530D3BB3FBF2F30193019875
S2140016C403B05DF804FB1FB5012300220093062136
S2140016D40DF10F030CF03DF920B99DF80F3023B13E
S2140016E402F0EEF905B05DF804FB02F0EAF9F9E75A
S2140016F413B5044600900A4B0A4A0B4901200DF024
S21400170411FB5CB12246094901200DF00BFB009445
S214001714074B084A044901200DF004FB02B010BD33
S2140017240C210300152103001A2103002E210300B7
S214001734B23903005A210300FFF7C5BF09B9FFF702
S214001744C2BF704738B5C37B05460BB1832038BD8E
S214001754C47C2CB901F0FEF920B9EB7B002BF5D143
S2140017648120F4E72046F2E738B5C37B05460BB183
S214001774832038BDC47C6CB9017D82898B1C9A4257
S2140017840AD380680CF02FFE06F06CFE30B9EB7BB3
S214001794002BEDD18120ECE78020EAE72046E8E73D
S2140017A4C37B10B504460BB1832010BDC37C1BB1AC
S2140017B4012B10D08120F8E7017D82898B1C9A4288
S2140017C40CD380680CF00FFE07F004F840B9E37BF6
S2140017D4002BE9D1EEE707F015F8F7E78020E4E7F9
S2140017E40020E2E7C37B10B504460BB1832010BD8E
S2140017F4C37C012B0BD003D3022B0BD08120F6E73E
S21400180408F066FB48B9E37B002BEFD1F6E708F057
S2140018146FFBF7E708F07CFBF4E70020E7E7C37B01
S214001824F7B50446002B40F0D280C37C072B00F2A9
S214001834D080DFE813F008003800590086009B00CB
S214001844AA00B600C900037D8289591C8A42C0F0EA
S214001854C2809DB2691C881C8242C0F0BC80A0680D
S214001864C75C0CF0C0FDEB1CA6895A1C964228BF28
S214001874A268014624BFD25C2B1D03F1010038BFC9
S214001884FF2286422ABFA068FF23C35C384607F0BF
S214001894A3FC002840F0A180E37B002B14BF832028
S2140018A4812003B0F0BD067D8589731C9D42C0F07F
S2140018B49280B7B2BA1C954207F10103C0F08B8040
S2140018C48068C15C13460132954224BFC25CFB1C8F
S2140018D403F1010738BFFF22BD422CBFC35CFF23C0
S2140018E4805D07F08DFCD4E7037D8289591C8A420B
S2140018F471D39DB2A91C8A4205F101076BD3881CDB
S214001904824268D3A068C65CC75D0CF06CFD291DD6
S214001914B4F80CC04B1C9C4528BFA368024624BFE1
S2140019245B5C691D01F1010038BFFF23844532BFAB
S214001934FF21A068415C30460091394607F070FCF0
S214001944A7E7027D8189501C814293B222BFA0681A
S2140019540133805C03F1010238BFFF2091422ABFA5
S214001964A268FF21D15C07F06DFC92E7017D8289B5
S214001974CB1C9A422FD38068455C01310CF033FDB2
S2140019840146284607F032FC83E7037D81899A1CCA
S214001994914220D38268591C515CD05C07F038FC15
S2140019A477E7037D8289191D8A4214D3806899B229
S2140019B4C55C4B1C0231C65C0CF015FD3146024674
S2140019C4284607F036FC64E707F041FC61E783200D
S2140019D467E7812065E7802063E7002061E738B584
S2140019E4C37B0446002B437D14BF8325C325012BEC
S2140019F415D10368028A598858790BF023FA70B116
S214001A0423685B88062B32D0082B30D0032B32D1C8
S214001A142046BDE83840FFF7A7BE81252BE0637D4E
S214001A244BBB2368228A598858790BF002FA10B304
S214001A3423685B88052B09D8042B18D2EBB1032B3B
S214001A4419D12046BDE83840FFF7AABE082B19D0A6
S214001A5406D8062B0FD12046BDE83840FFF7C2BE95
S214001A64B3F5806F03D040F20242934203D1E37B86
S214001A74002BD2D08325284638BD2046BDE8384002
S214001A84FFF760BE2046BDE83840FFF7C8BE704783
S214001A9401207047012070470120704770470020DE
S214001AA470470020704700207047002070470020D1
S214001AB470470020704700207047012070470120BF
S214001AC47047B520704700207047002070470020FC
S214001AD4704700207047704700207047002070470A
S214001AE470478120704700207047842070477047F5
S214001AF470477047012070470246024901200DF0E6
S214001B0411B900BF5F21030070477047002070477B
S214001B147047002070470000034B1B6818780128A4
S214001B2408BF0220704700BFCC3800200020704752
S214001B3403460120024AC3E9032000221A707047B4
S214001B440100FEFF70470020704700207047002009
S214001B547047002070470020704700207047704789
S214001B64B52070470020704700207047704700205B
S214001B74704770477047B520704770477047704786
S214001B8400207047704770470023FF21084A1370EF
S214001B9482F8783082F8653082F8773082F87930C7
S214001BA482F87A1082F87B30024A1360704700BFCE
S214001BB40C24002004410020F8B50D468C680A6801
S214001BC406462849202002F018FE6B687BB9264991
S214001BD4202002F012FE202009F0A8F82349202035
S214001BE402F020FEBDE8F840202009F09FB8002E41
S214001BF4F1D01F4D1F4E204F013C14F8013F23B96E
S214001C041A49202002F00EFEE5E7752B18D0762B35
S214001C1418D0772B18D0732B18D0722B18D0712BA2
S214001C2418D0622B18D06E2B18D02A2B18D0134934
S214001C34134A212B18BF1146202002F0DEFDDCE7F4
S214001C442946F9E73146F7E73946F5E70D49F3E75C
S214001C540D49F1E70D49EFE70D49EDE70D49EBE7CF
S214001C640D49E9E77D6B03001A220300CB2103002C
S214001C74D8210300CC210300E3210300242203001F
S214001C8421220300EF210300F921030004220300AC
S214001C940F220300192203001E220300F0B50026BB
S214001CA4204A92F87B30184452FA80F090F865C0C7
S214001CB490F8665030461C4BA5EB0C051F78EDB229
S214001CC4F4B2A54225D90CEB060313445B7811B194
S214001CD40CB92D2B17D0782B1FD0582B05D108B153
S214001CE437240AE0013C012C14D9602B17D8402B6A
S214001CF4F6D83A2B34BF302400241B1BDBB29F4299
S214001D0403D900FB07300136DAE70523002082F802
S214001D147930F0BD10270020F5E70028E2D05724DC
S214001D24EBE700BF0C240020081D0020FFF72CBFA3
S214001D34034B93F8770093F87B30C01AC0B2704711
S214001D440C2400200021FFF7A9BF000010B50A4BA1
S214001D5493F87B20024453FA82F292F865201344E7
S214001D645C78A4F12D0359425941FFF797FF2D2CB7
S214001D7408BF404210BD00BF0C24002030B50C4AFA
S214001D8492F87B300344C043DBB2C00F39B1D51898
S214001D9495F8664095F86550641B241A0C7042FA50
S214001DA483F393F865301844024B184430BD00BFE3
S214001DB40C2400200D240020F7B515460E460DF120
S214001DC407011C46FFF7DAFF9DF807300746AB42CB
S214001DD488BF8DF807501CB19DF807402C1BE4B251
S214001DE422463046002100F079FB30199DF8072082
S214001DF4394600F017FB9DF8070003B0F0BD38B570
S214001E040C4601230822FFF7D7FF04F10803621EDD
S214001E14043413F8011D12F8015FA3421D701170FB
S214001E24F7D138BD38B5054601460120FFF7C4FE94
S214001E34D5E901436CB91C46084D236863B12946AD
S214001E44202002F0DAFC21460020FFF7B5FE0C3411
S214001E54F3E71B786E2BEFD038BD00BF761D03006A
S214001E6408B50449202002F0C8FCBDE8084020203C
S214001E7408F05CBF8C21030038B5FFF7F1FF00249F
S214001E84054D61190C34631953F80C3C03B938BD7D
S214001E940020FFF791FEF4E7142F03002DE9F84F16
S214001EA41F4B204D53F820201F49202002F0A5FC8C
S214001EB42B681BB9BDE8F84FFFF7DEBF1B4FFFF7D3
S214001EC4CFFF0026B946DFF86CA097F87B30F4B253
S214001ED4013B9C4204DB2868BDE8F84FFFF7A2BF2D
S214001EE447FA86F393F8658000234C44C84494F874
S214001EF4662094F8651003F1010B521ADBB2D2B2D5
S214001F04934205D30A49202002F077FC0136DCE729
S214001F1443445A785146202002F06FFC5B46E6E7BD
S214001F240C1D002004410020872103000C240020FF
S214001F34771D03001C7003002DE9F74F884C94F8B6
S214001F447730002B00F0A180864B671C1B7813F0BB
S214001F54010F1FD00025844E14E0631993F8662001
S214001F6493F865302020D21A44FA85F393F8651066
S214001F74D2B2394408F0D5FE3146202002F03DFCAA
S214001F840135EDB294F87730AB42E6D87749202095
S214001F9402F033FC002694F87730DFF8DCE1019396
S214001FA4734B4FF00008714645461EF8012B91F816
S214001FB401C007EB020AACEB020C5FFA8CFC186853
S214001FC4002852D00138D14619E02AB9002D4AD04B
S214001FD44FF001080C33F2E719F8011BA1F1410B8D
S214001FE4BBF1190F98BF2031A2F1410B98BFC9B2BB
S214001FF4BBF1190F9CBF2032D2B28A42EAD1A9EBB8
S2140020040A01614510F8012FDFD1002ADED11D46F2
S214002014584B01361D6094F87B30F6B2013384F8D1
S2140020247B30D5E90123002A35D01B786E2B31D0BE
S2140020343F2B23D04FF000094FF0070BC84604236C
S21400204494F87710AA68B14212F808702BD8AFB18A
S214002054904498F801302A2B10D0212F1CBF03235C
S21400206484F879300AE01D46B4E7B8F1000F01D1D0
S214002074002DCDD10223002584F8793094F8790018
S214002084002869D168680BF09DFE03B0BDE8F04FE8
S214002094FFF77ABD1346019AB24282D803221D4640
S2140020A484F87920EAE7732F09D8712F0BD2212FF1
S2140020B41FD0622F3CD0002F4BD1032246E0A7F15D
S2140020C47502022A45D8752F29D0762F2AD0732F69
S2140020D42BD0722F47F6FF7A18BF4FF0FF3A012134
S2140020E448460193FFF7DAFD5045019B01D984F871
S2140020F47930AA68424452782A2A94F879201CBF78
S21400210408F101085FFA88F8002AB7D1212F1FBF0B
S214002114013609F10109F6B25FFA89F990E74FF042
S214002124FF0ADCE74FF6FF7AD9E74FF07F0AD6E7D7
S21400213494F87B204A4454FA82F292F865202244AA
S2140021445278222AD5D07B2AD3D0052284F8792047
S214002154CFE784F879B0CCE7FFF7A0FE95E700BF99
S2140021640C24002088240020771D0300C9210300C6
S214002174142F030004410020712400202DE9F341AC
S21400218406460D464FF000085C4C5D4F66B90DF1EF
S2140021940701284608F0C0FD78B1262800F0A9807B
S2140021A4012384F879304BE0002D00F0A28016F865
S2140021B4013B013D8DF80730EDB23A789DF80730C3
S2140021C40D2A3B7001D10A2BE0D00D2B0CD0A3F1C5
S2140021D40A025142514122788846042AD6D8DFE8BA
S2140021E402F0051D263C31000121F4E721B1FFF77A
S2140021F4A3FE4FF00108C9E7202B63D0222B07D19A
S2140022040223237094F87820642A5DD10623C8E755
S2140022147B2B01D10323F4E70123F2E709B9202B32
S214002224F0D194F87730112B3FD10323B9E7222B52
S214002234F7D00029E6D005234FF0010884F879305A
S21400224404232370B8F1000FA0D094F8790008B1E5
S214002254FFF724FEFFF798FC98E77D2B94F87A00A6
S21400226403D1FF28DDD005239BE7602B13D8402B32
S21400227413D8392B8CBF002230229A1AD2B20F2AD6
S21400228410D8FF280BD0FF2302EB00128DF807208E
S21400229484F87A30B6E75722EFE73722EDE784F87A
S2140022A47A2073E7202BDED170E70133DBB294F893
S2140022B4782084F87730234483F86520002323703D
S2140022C4002994D1884661E72378012B09D19DF82B
S2140022D40730A3F1410119299CBF2033DBB28DF8E6
S2140022E407309DF80710A3180132597084F8782037
S2140022F44CE7404602B0BDE8F08100BF0C24002045
S2140023048924002049BA89B24840C0F303114140E9
S214002314080380B24840C3B280EA4310704718F0FE
S21400232425BD7047704770477047704770477047C1
S2140023347047704770477047704770470020704773
S21400234470477047002070477047704700207047FA
S21400235470477047704700207047704701207047E9
S2140023640120704770477047704770477047704742
S214002374704700002DE9F0470024204DDFF89C90BC
S214002384DFF89CA05FFA84F840461CF0A9F8FF2802
S21400239406460CD122461A49287802F043FA2878D1
S2140023A4013408F0C3FC142CECD1BDE8F087154BBF
S2140023B447B213EA270338BF534659F82420124974
S2140023C4287802F02FFA002FE9DA14B1B8F1030FD7
S2140023D408D10E4B16F0010F0D49287818BF194680
S2140023E402F020FA0A2CDAD10A4B16F0010F0A4939
S2140023F4287818BF194602F015FAD0E7BD20002049
S21400240441230300CB2103006923030004230300B4
S2140024141A2303002C23030036230300B0220300F0
S214002424F06B03008842F0B54FEA92031AD80446CC
S2140024340D469BB29E00871904370434BC4205F14E
S21400244404053AD1C3EB8333314402EB8303013EE4
S214002454304411FA83F3994220D011F8012B00F886
S214002464012FF8E7541E204421440D4604469BB22F
S214002474A0EB8306043E043CB442A5F104050ED149
S2140024846FF003045C43C3EB833302EB8303214402
S2140024949BB201342044CB1A994209D1F0BD2F795E
S2140024A42771EF78E770AF78A7706F786770E2E708
S2140024B411F8012900F8012DEEE715F804CC04F80C
S2140024C404CC15F803CC04F803CC15F802CC04F8B5
S2140024D402CC15F801CC04F801CCAEE702449042D5
S2140024E400D1704700F8011BF9E710B5013801392F
S2140024F40AB9104606E010F8014F11F8013F9C4255
S21400250401D0E01A10BD013A92B2F1E782B2074B4D
S2140025144AB1000C1A8008BF4FF6CE22044B14BFF3
S21400252418801A8070474BF6EF62F2E7DC1D002035
S214002534DE1D0020094B1888020448BF80F06200A4
S21400254442001A80064A1388190444BF83F4805351
S21400255483F00B035900118058407047DC1D00209F
S214002564DE1D00200022034B1870034B1970034B2A
S2140025741A7070479324002092240020942400208C
S2140025842DE9F04F234E85B0337807468846002B56
S2140025943DD04FF6FB73204D98422C7803D9522138
S2140025A41E4800F0E7FE1E4B4FF0000B9A463278AA
S2140025B45FFA8BF94A45187811D9484402A9C0B283
S2140025C4019324F07DFD082241460DEB0200FFF73F
S2140025D48CFF0BF1010B019B0028E8D14C462B78AD
S2140025E4A34207D1631C3278DBB29A422B7004BF35
S2140025F400232B709AF8003041461C44E4B220466F
S21400260424F086FE18B93946204624F027FD05B086
S214002614BDE8F08F92240020942400205E2403005A
S21400262493240020024B187800F07F00704700BF08
S21400263495240020034B18780130C0B2187000F0BF
S2140026447F007047952400201FB5030A8DF80E30CE
S2140026540323009303AB8DF80D0000F0BFF905B01B
S2140026645DF804FB1FB58DF80F100421030A8DF8DE
S2140026740E30009103AB8DF80D0000F0AFF905B0F5
S2140026845DF804FB2DE9F043994689B0BDF8405047
S2140026949DF84460074688460DF109001146082255
S2140026A4BDF84C40FFF7BEFE8DF81250012E4FEADF
S2140026B415258DF811908DF813508DF8146017D0E9
S2140026C4032E1CD1082212990DF11500FFF7AAFE5D
S2140026D49DF850308DF81D3016230093BDF8542015
S2140026E402AB4146384600F079F909B0BDE8F083FC
S2140026F48DF81540240A8DF816400F23EDE70120C7
S214002704F3E71FB50C46194602238DF80D200093F7
S2140027140A4603AB0146204600F060F904B010BD3B
S21400272470B586B0044616460DF10D0008221D4607
S214002734FFF778FE0A232A460093342103AB20468B
S2140027448DF8156000F04AF906B070BD30B5002467
S21400275485B0ADF80A20021D92B2012A1D46ADF8D6
S2140027640840ADF80610ADF8044003D94FF6FF72E2
S214002774904207D1064A2B46127801A922F0E2FDC0
S21400278405B030BD014601AA204622F0A1FEF7E7B7
S214002794E01D00202DE9F74F9846FF2A16BF474B49
S2140027A400241B680E4618BF9C5C814618BF64084C
S2140027B4B8F1FF0F16BF414B00271B6815461CBF18
S2140027C413F808707F08FFF735FF4FEA19238DF8D2
S2140027D400008DF803600621360A68468DF804600A
S2140027E48DF801908DF802308DF805401CF030FC11
S2140027F4FF28064604D11824204603B0BDE8F08F0F
S2140028044FEA440B0BF1070A0AEB4701C9B21CF066
S214002814D3FB0028EFD10446A3451BD10BF10601D8
S2140028243A4601F0FE0130465FFA8AF41CF08BFC4F
S2140028344FF0000A5FFA8AF5AF4223D83346BDF854
S214002844302006214846FFF781FF044630461CF038
S214002854A1FAD1E7214628461CF070FCA11D0246C9
S214002864C9B230461CF06FFC611CC9B228461CF085
S21400287465FCE11D0246C9B2304602341CF063FC16
S214002884E4B2C9E76D00EDB2294640461CF056FC9A
S2140028942146024630461CF056FC691CC9B2404626
S2140028A41CF04CFC611C0246C9B2304602341CF0D3
S2140028B44AFC0AF1010AE4B2BCE700BF781D002016
S2140028C42DE9F04188B00F4602A9064609F032FE0B
S2140028D400287CD0FFF7AEFE8DF810001BF0D4FF66
S2140028E48DF811001BF0D0FF000A8DF812000822A4
S2140028F439490DF11300FFF795FDBDF808300F2197
S2140029048DF81C301B0A8DF81D309DF80D3004A878
S2140029148DF81B608DF81E301CF09AFBFF280446C9
S21400292457D04FF000089DF80D305FFA88F29342B6
S21400293408F101081DD801220DF10E0120461CF0F5
S214002944C9FB4FF000089DF80E305FFA88F29342F8
S21400295408F1010824D823463A4620210020FFF730
S214002964F5FE054620461CF015FA284608B0BDE8D4
S214002974F0810021304609F009FE05468DF807006F
S2140029840DF10701012220461CF0A4FB2D0A0122AA
S2140029940DF1070120468DF807501CF09BFBC2E79B
S2140029A40121304609F0F2FD05468DF807000DF1C9
S2140029B40701012220461CF08DFB2D0A01220DF191
S2140029C4070120468DF807501CF084FBBBE7A325BF
S2140029D4CBE71825C9E700BF814E0020F8B51C4692
S2140029E40E4617460546FFF725FE9DF8181020707C
S2140029F420461CF02DFBFF2804460BD003463A461F
S214002A0428463146FFF7A2FE054620461CF0C2F9CA
S214002A142846F8BD1825FBE708B5FDF721FEBDE8F6
S214002A2408400DF017BA08B5FFF75AF80DF03CFA4F
S214002A34BDE8084005F058BE7047FEF7AFB8FFF78C
S214002A4488B80020704738B504460D46FFF79AF854
S214002A5429462046BDE8384008F0E8BDFFF77BB8B5
S214002A64FFF785B80222062101200DF0CBBE4222D4
S214002A74062101200DF0C6BE4122062101200DF0DC
S214002A84C1BE0122062110460DF0BCBE402206211E
S214002A9401200DF0B7BE0022062101200DF0B2BEC3
S214002AA40322082101200DF0ADBE022208210120D8
S214002AB40DF0A8BE0722082101200DF0A3BE0622B1
S214002AC4082101200DF09EBE0422082101200DF0ED
S214002AD499BE0522082101200DF094BE002208218B
S214002AE401200DF08FBE0122082110460DF08ABE8B
S214002AF44022032101200DF085BE01220321104649
S214002B040DF080BE0022032101200DF07BBE0222C0
S214002B14032101200DF076BE0122002109200DF0CC
S214002B2471BE002307B5CDE90033012369464FF093
S214002B34FF308DF802300FF075FD003018BF01200D
S214002B4403B05DF804FB01207047012070470120A4
S214002B547047000010B5084C23681B6858790AF0C3
S214002B6496FB23681B685879FEF7C2FF00200DF019
S214002B742FFB012010BD00BFE04C00202DE9F84FCC
S214002B8480460D4614469946164E06F1010A0DB9BE
S214002B94BDE8F88F102D4FF00D02494650462F46DB
S214002BA428BF1027FFF73EFC0123337000230D488F
S214002BB4F473B37324F044FC424601340A495FFAC2
S214002BC487FBE4B212F8013B11F8010F434002F808
S214002BD4013CA2EB0803DBB25B45F3D3ED1BADB2BD
S214002BE49046D4E79A240020992400202DE9F04F3B
S214002BF44FF00209364D85B003930F9B174601909C
S214002C040D220E460146681CBDF838800293FFF775
S214002C1409FC49234C46AA462B7028464FEA18233B
S214002C24AB7385F80F8024F00BFC2B7883EA17230C
S214002C342B706B787B406B704FF0000B21E0C4F177
S214002C44100CA7EB0B031FFA8CFC9BB2634528BF42
S214002C5463463046A11B00EB010C5FFA8CF2A0EB36
S214002C64060C1FFA8CFC9C451BD31C44E4B29B4404
S214002C74102C1E441FFA8BFB03D1284624F0E0FBDD
S214002C840024BB45DBD314B1504624F0D9FBB9F17C
S214002C94010F4FF00004039E47460BD04FF0010986
S214002CA4CAE710F801CB1AF802E08CEA0E0C0AF810
S214002CB402C0D0E7029804220549FFF7B3FB224678
S214002CC40421019B029805B0BDE8F04FFFF756BFFC
S214002CD49A240020F7B5099FBDF820400646CDE9A2
S214002CE400471D46FFF782FF2CB1334601222146DA
S214002CF42846FFF743FF002003B0F0BD2DE9F74355
S214002D041E46054688469146BDF828700D4C034677
S214002D14394630460122FFF731FF33464A464146DC
S214002D242846CDE90074FFF761FF042221460B987C
S214002D34FFF7DBFB002814BF7E20002003B0BDE8AD
S214002D44F08300BF962400202DE9F3410C46154677
S214002D541E468046084F9918214438460422FFF739
S214002D6461FBCDE9006763192A4621464046FFF712
S214002D74C5FF02B0BDE8F081AA24002000207047F9
S214002D840020704770477047F7B50024094E0A4F75
S214002D940A4D56F8243003B93B6835F81420084920
S214002DA400920120224601340BF0BCFF292CF0D1FE
S214002DB403B0F0BDE41D00208C1E0020AC410020B2
S214002DC4343A030008B5FFF7DFFFBDE8084000F01B
S214002DD4F1B8000007B50020FEF7B4FFC2B2282AF7
S214002DE40DD8084B53F822300BB9074B1B6807491C
S214002DF4012031F81210009105490BF093FF03B03F
S214002E045DF804FBE41D00208C1E0020AC4100206D
S214002E14343A0300FFF7B8BF7047000038B5002007
S214002E24FEF790FF04460120FEF78CFF0546054991
S214002E3401200BF077FFA9B2E0B2BDE8384000F0FD
S214002E44D1B800BF3F3A0300F7B50024094E0A4F35
S214002E540A4D56F8243003B93B6835F8142008495F
S214002E6400920120224601340BF05CFF292CF0D19D
S214002E7403B0F0BDE41D00208C1E00205A41002043
S214002E84343A030073B502AB03E906000446019D19
S214002E941BF016FA064620461BF020FA9DF80000A2
S214002EA48EB1202C0FD82B78012B37D84FF6FF7510
S214002EB4394903EB4313234431F81320AA4202D0C2
S214002EC4013221F813204FF6FF72344B344933F89D
S214002ED4146031F8145096421CBF721C23F8142058
S214002EE404F0FD02092A31D19A8A898A02448A4268
S214002EF4B4BF9A82998233F81430AB4204D3AE42FC
S214002F0402D22046FEF7F5FD0025264BEA5CA242D7
S214002F1428D00135112DF9D102B070BD022BD2D1C3
S214002F244FF6FF714FF6FF751B4B33F814208A4299
S214002F341CBF013223F8142004F1210233F81210C6
S214002F44A9421CBF013123F81210BCE71D2CD2D1B4
S214002F545A8F1118A942BDBF02F1FF3212185A87C0
S214002F645D87C8E717F0BDFB0F4B04461B7883420A
S214002F7403D8DD210D4800F0FDF94FF6FF710C4A29
S214002F8404EB04142C4432F814308B42C4D00133BE
S214002F9422F81430C0E700BFFE410020AC410020F8
S214002FA45A410020AB3D0300C11D0020273D03000D
S214002FB438410020522200210148FFF78FBA00BF93
S214002FC4AC4100205222FF210148FFF787BA00BF18
S214002FD45A41002008B5FFF7EDFFBDE80840FFF7AB
S214002FE4F1BF0000014B23F8101070475A4100202F
S214002FF4032310B50F4C4FF48062C4E904330E4B20
S2140030040E49E3610023A16121660D49E01DC4E970
S21400301419120C49A3626362E3622367E36663677B
S21400302422622EF07FFE084920462EF07BFE2023E7
S214003034A37110BD84420020AE280020BC3D0300CE
S214003044AE240020C53D0300C93D03002DE9F84F1A
S2140030541F4B16461A7881468A4698460AB9FFF7E1
S214003064C7FF182707FB09873D6FD7F86CB05D4587
S2140030742BD9BC6E796E641BB44228BF34462944EF
S214003084504622462EF03BFEBB6E2544AB4208BF9C
S2140030940025A244361BABEB050B5E4528BF5E46F7
S2140030A456B1182303FB0983596E32462944504609
S2140030B42EF025FE3444354424B1182303FB098836
S2140030C4C8F870502046BDE8F88F0024E3E700BF38
S2140030D48442002010B50B46EFF311844FF0200114
S2140030E481F311881946FFF7B1FF84F3118810BDE8
S2140030F42DE9F84F144D9B462B7881468846924618
S2140031040BB9FFF775FFEFF3118C4FF0200181F335
S2140031141188002018236F6903FB0054666E2EB1D5
S21400312401308742F8DC4FF0FF3009E08742FADDD1
S214003134C4E91898C4F868A02667E666C4F874B0AC
S2140031448CF31188BDE8F88F84420020FFF750BF47
S21400315470B54FF060441A4B00261A68194D42F0B9
S21400316401021A60DA680C2042F08072DA60164BAC
S214003174C4F8B03F0223C4F8006EC4F8806EC5F8E5
S214003184F03003F0ABFA114B00F5D52000F2FC400A
S214003194B0FBF3F00E4A0F4B01382861C4F8406EBA
S2140031A41A600D4BC4F8803E4FF48073C5F80433A0
S2140031B4D4F8003E43F48073C4F8003E70BD00BFEC
S2140031C4F0ED00E0000004E055CEACC5F8590D0063
S2140031D4FF030040001000E00D00010010B50124BC
S2140031E40E4B00201C6003F005FE23460422032138
S2140031F4002003F047FE20460EF024FFFFF7A8FF4A
S2140032040EF021FFFFF7A2FF23464022044905489B
S214003214FFF76EFF044B1860C00F10BD44D4034084
S214003224AE2C0020D03D0300901E0020024B1868F0
S214003234003018BF01207047F0ED00E0D123054AA6
S214003244037013784170090A8170591CC370117099
S21400325404207047EE2C00202DE9F74F354E074624
S21400326433681C5C032C63D9DFF8CC8016F04AFE66
S2140032744FF6FF7A0025C1460534E4B20190D8F82B
S21400328400204AB1AC4207D916F03CFE019BC01A96
S21400329480B2B0F5FA7F05D9601B18BF012003B0D1
S2140032A4BDE8F08F002D3DD0012D1DD14FF0020B4F
S2140032B43268D55D4FF06042D2F8801ECB0711D538
S2140032C41146D9F80C0040F08070C9F80C00D1F80B
S2140032D4000E40F48070C1F8000E086A0028F0D092
S2140032E482F820505D46CAE7E21E05F1010B9542BE
S2140032F45FFA8BFB02D15FFA8AF5DBE7A21E9542E2
S21400330402D1CAF30725D5E7621E95420ED0A91E40
S214003314C9B238461BF012FF51460546FEF7F2FFC7
S2140033248246C7E75B254FF0010BC3E75D25C1E77F
S2140033340120B4E7781D0020F0ED00E010B50B4B3B
S21400334490B0402269461868FFF7C4FE58B1C1B26F
S21400335468461BF07DFE0446014612200EF01EFB56
S21400336420461BF017FD10B010BD00BF901E0020B5
S21400337442DE704738B504460D4600F001FD03F002
S21400338494FC294620460EF0D5FA2B4622460549DB
S214003394012007F0D1FC29462046BDE83840FFF757
S2140033A4E7BF00BFE03D03006D4B2DE9F0415A68CE
S2140033B46C4CA2655A6AE2656B4AD2F80012216622
S2140033C4D2F8042262669A6AA266DA6AE2661A6B1F
S2140033D422675A6B6267A26BDB6B12F0040FA3675B
S2140033E4D4E90F5318BF1D4616F070FD002285421F
S2140033F40346606522655DD35C4A95425AD8AA693D
S2140034046264E969A164B4F85810C1F30801062996
S21400341454D157498A4251D356498A424ED21188CA
S2140034244DF64262914249D140F201706268C4F896
S2140034349420A268C4F898204F4A5049934238BF53
S21400344413460A468B423CD3D31AE3640023C4E9EA
S2140034541F33C4E92133C4E92333484E444FDFF80D
S21400346414C1AE4233D8D4E91FC7D4E92165D4E9E0
S21400347423124FF0000E013BDBB2FF2B42D1BEF10C
S214003484000F05D0C4E91FC7C4E92165C4E92312A7
S214003494B4F85830C3F30803052B57D03CD8032B95
S2140034A447D0042B58D040F60722013B4B2B98BF3D
S2140034B4104640E000221D46C4E911224FF4206065
S2140034C4BAE71E68B6F1CD3FBED10433BAE756F864
S2140034D4042DBA42C5D36245C3D2D107C1D5002153
S2140034E404EB010EDEF87CE09645BAD004311829C8
S2140034F4F6D10BB9052301E0013BDBB204EB8301F3
S214003504CA67AEE7E0464FF0010EBC4637462E4685
S2140035140D4611464246AEE70C2B1AD03B2B0CD078
S214003524062BC0D140F60423B0F5206F08BF18461A
S21400353401E040F60120BDE8F081114B9B6913F0D1
S214003544020F40F2025318BF1846F4E740F6032071
S214003554F1E740F60520EEE740F60220EBE700BF71
S21400356400ED00E00000002000E100E0A01A0020CA
S2140035744C030000601D03009C000020C01A0020BD
S2140035840080014A10B504F0E9F9044604F0DEF9B7
S2140035940022012101FA02F3234014D01B4B33F816
S2140035A412301B4A062B13D040F207218B420DD152
S2140035B4184919480C68844208D14CF23C334B80B5
S2140035C40B88138012E00132102AE3D1104AF8E780
S2140035D44FF20F010F4B5888884214D11988B1F561
S2140035E4406F10D211804CF23C325A80084B1A8835
S2140035F440F201739A4201BF084B094AD2E900011E
S214003604C3E9000110BD4FF4C061EBE7F43D0300CD
S214003614F82C00200000002007020FF0F02C0020F9
S21400362494000020014B1888000A7047F82C0020EC
S214003634014B1888704700BFF82C00202DE9F04F86
S2140036444D4C0546A36BD4F850B05A0747BF002725
S214003654B846D4F84CB0D4F85480D4F840A05DBF33
S214003664464FD4F83CA0DFF83C91DFF83C9113F0C9
S214003674080F434B434A18BF1A46B7EB08061FBF4A
S2140036846421730801FB0B33B3FBF6F387B01CBF4E
S2140036949BB205933C494B46CDE9017ACDF80080B0
S2140036A408BF059601F0BEF8B3B2CDE900931FFA41
S2140036B48BF2059B3549284601F0B4F8A36B5B07EB
S2140036C40AD49C3E5E4507D1626D314B9A4203D2C2
S2140036D43049284601F0A6F8BA4501D8C24504D2B6
S2140036E44A462D49284601F09DF8284607F01EFB59
S2140036F4236E0BB9636EBBB32849284601F07DF8E8
S21400370400260127DFF8A480DFF8A490226E07FACB
S21400371406F3134207D058F8262013781BB14946FF
S214003724284601F06AF80136202EEFD1002601273C
S214003734DFF87880DFF87890626E07FA06F31342B3
S21400374409D008EB8603D3F8802013781BB14946CA
S214003754284601F052F801361D2EEDD1284607B052
S214003764BDE8F04F01F058B828460D4907B0BDE84B
S214003774F04F01F057B800BF00000020C01A002028
S214003784FB400300024103000A41030038410300E2
S2140037949C000020714103009D410300BB410300CF
S2140037A4EA410300F6400300815903000042030087
S2140037B47C6B03002DE9F8430446FFF739FF40F617
S2140037C40123984239D010D840F2025398421DD0B3
S2140037D440F20173984224D040F20153984213D128
S2140037E46549204601F01EF822E040F6032398427D
S2140037F46CD03DD340F60423984200F09C8040F6FB
S2140038040523984200F0B580BDE8F8835B4920465E
S21400381401F008F85A4B5B495A6C204601F002F84E
S21400382406E0574A5849D2E92523204600F0FAFF15
S2140038342046BDE8F84307F079BA514D534920466F
S21400384400F0F0FF95F86C309F0703D550492046EA
S21400385400F0E8FF95F86F305E0603D54D49204624
S21400386400F0E0FF95F96F30002BE1DA4A49B8E73B
S214003874434D4A49204600F0D5FF95F8683098072E
S21400388404D06A6C3F49204600F0CCFF95F96830B6
S214003894002B04DA6A6F4249204600F0C3FF002674
S2140038A40127DFF80881DFF81491AA6E07FA06F3F9
S2140038B4134207D058F8262013781BB149462046F1
S2140038C400F0B0FF0136082EEFD1B1E72C4D354994
S2140038D4204600F0A7FF2B496A6C204600F0A2FFA2
S2140038E495F86930590703D52F49204600F09AFF0A
S2140038F495F96930002B04DA6A6F2949204600F0EE
S21400390491FF0826294FDFF8B480AB6EF340DA0740
S21400391407D557F8262013781BB14146204600F0F9
S21400392481FF0136102EF0D195F86830002B7FF415
S2140039347FAF1F4955E7124D1E49204600F072FF1F
S2140039446A6C1049204600F06DFF1026174FDFF80A
S2140039546C80AB6EF340DB0707D557F82620137848
S2140039641BB14146204600F05DFF01361A2EF0D109
S2140039745EE711494BE700BF853E0300C23E0300E5
S21400398400000020F23E03000B3F0300253F030027
S2140039943D3F0300773F0300AA3F0300E63F0300D2
S2140039A40B4003002F40030046400300143E030070
S2140039B48C400300BC400300D540030027400300AE
S2140039C42DE9F84F06460025154C164FDFF85C80A7
S2140039D4DFF85CA023785FFA85FB0BB9BDE8F88FA7
S2140039E457F8043B22461049304600F006FF22787A
S2140039F404F1010982B9627882B10BF0030103294C
S214003A040CBF41465146304600F0F7FE304607F0FC
S214003A148DF901354C46DDE74C46E8E74146F2E7CA
S214003A24F4420300040000207C3E0300C921030086
S214003A34D75D030000F00CB800F00AB800F008B830
S214003A4400F006B800F004B800F002B800F000B8C1
S214003A5472B61EF0080F09D01EF0040F0DD0DFF862
S214003A6450E0AEE8FF1F6FF002000CE0DFF840E025
S214003A74AEE8FF1F6FF00E0005E0DFF834E0AEE8B6
S214003A84FF1F6FF006006946EFF309828EE8070011
S214003A9486460848084C854501D3A54501D384F3DA
S214003AA40888FFF781FC84F3088816F0EBF9000019
S214003AB404000020A0110020C01A0020FFF7C6BF93
S214003AC4704770477047704700F07E63B3F17E6FAF
S214003AD470B505460E46144616D105F07BFC18B1A3
S214003AE49A210D48FFF746FC22463146C5F30B00E3
S214003AF403F0F0FF044605F079FC5CB19D21BDE8B7
S214003B0470400548FFF736BC520816F059F908B15C
S214003B148F21F4E770BD00BF184A030037B57F2A2B
S214003B2414BF154600254BF234629142044619D15F
S214003B347F2241F2020168460823FFF7EFFF0822BE
S214003B4425496846FEF7D1FC30B908237F2241F2A6
S214003B54F0116846FFF7E2FF082269462046FEF7A2
S214003B6461FC09E041F2F01291421AD11B49013876
S214003B748A6CC96C1D1F0BB903B030BD013B9D4256
S214003B8400F8012F4FEA1222F5D1002203349A429C
S214003B94F2D00132042A04F8011F4FEA1121F6D1AB
S214003BA4EAE701F47042B2F5805F07D1C1F30B0473
S214003BB404F17E649AB203FB0541D0E701F4604247
S214003BC4B2F5005FD8D1C1F30B0405499AB221447B
S214003BD403FB0511C3E700BF924A03000080E00F11
S214003BE400E0070070B5054616461C46DBB14BF2EE
S214003BF43463994210D1082C28BF08247F2241F24E
S214003C0402012346FFF78AFFA2B207492846FEF7B9
S214003C146CFC40B941F2F011234632462846BDE812
S214003C247040FFF77BBF70BD924A03002DE9F7434F
S214003C340446E0070F46154603D5DD213448FFF752
S214003C4499FBE90703D5DE213148FFF793FB04F41B
S214003C547043B3F5805F3ED1C4F30B0404F17E6475
S214003C646B1E2C4A23449342264603D9E321284854
S214003C74FFF780FBDFF8989006EB050846453DD134
S214003C84A2070ED04FF6FF7337F8022B02A943EAB9
S214003C940243A01E41F8043D0422FFF715FF023438
S214003CA4023DAB070ED0023D25F00103FB5A02A9E4
S214003CB46FEA03436FEA1343042241F8043D601994
S214003CC4FFF702FF25B12A4639462046FFF7FCFED9
S214003CD403B0BDE8F08304F46043B3F5005F05D198
S214003CE40D4BC4F30B041C442646C3E7EA210848DC
S214003CF4FFF740FB6FF00F060024BBE716F8013B06
S214003D04FF2BBBD0F4214846FFF734FBB6E700BFD1
S214003D14184A0300FF1FE00F00E00700FFF78ABE03
S214003D241FB5144A01AB10685168128903C31A8080
S214003D3401238DF804300D238DF80A3003230E4C2E
S214003D44082123208DF80B3002F006FE01A9204638
S214003D5404F0F7F84FF40061022342F21800074A11
S214003D64C2F884112350516041F21C02A35004B0DF
S214003D7410BD00BF9A4A03000080014A00E100E03B
S214003D84014804F0CDB800BF0080014AA52803D13D
S214003D940021024804F0B5B8704700BF0080014A0D
S214003DA4024B586800F00100704700BF0080014ACB
S214003DB4024A536A002BFCD1704700BF0080014AB8
S214003DC400207047002070477047000007B572B6A1
S214003DD402F06BFF894B8A495B6940228B600023A3
S214003DE40B764B768B76F023CB760B774B778B77ED
S214003DF4CA77802281F8202081F82130E0236020D1
S214003E0481F822307F4B81F8232083F8002383F83F
S214003E14012383F8022383F8032383F8042383F817
S214003E24052383F8062383F8072383F8082383F8F7
S214003E34092383F80A2383F80B2383F80C2383F8D7
S214003E440D2383F80E2383F80F2383F8102383F8B7
S214003E54112383F8122383F8132383F8142383F897
S214003E64152383F8162383F8172383F8182383F877
S214003E74192383F81A2383F81B2383F81C2383F857
S214003E841D2383F81E2383F81F2383F8202383F837
S214003E942103202083F8222383F8232383F8242372
S214003EA483F8252383F8262383F8272383F82823F7
S214003EB483F8292383F82A2383F82B0383F82C0317
S214003EC483F82D2383F82E2383F82F2383F83023B7
S214003ED483F8312383F8322383F8332383F8342397
S214003EE483F8352383F8362383F8372383F8382377
S214003EF483F8392383F83A2383F83B2383F83C2357
S214003F04CB6823F4E0631B041B0C43F0BF6343F449
S214003F140133CB604B6943F010034B614FF4E0234D
S214003F244B6204F08DFBFFF72DFBEFF308834FF095
S214003F34CD31354A043B93425DD2344A002192B2D5
S214003F443348FEF7CBFA62B6684603F0EBFD314B16
S214003F549B6DDB0318D4304A136823F4FF0323F461
S214003F64FE4343F4BC1343F4A063136052F8043CCA
S214003F7423F4704343F4404342F8043C52F8043CB0
S214003F8443F4E06342F8043C9DF80130012B0FD162
S214003F949DF8003063B94FF000531B681F4B1B6835
S214003FA41F4B1B681F4B1B681F4B1B681F4B1B6854
S214003FB41F4AD2F8803043F00303C2F8803002224E
S214003FC44FF040231A6704F0B5FA01F0E5FA00232F
S214003FD400938DF80430012368468DF8033002F010
S214003FE400FF00F027F915F09FFF12480EF034F892
S214003FF403B05DF804FB1960043B9CE75400000022
S21400400400ED00E000E100E0601100208C100000EC
S214004014A000002000C0004034C000400040002043
S2140040240080002000C00020000001200040012085
S21400403400800040E873030040F2016015F022BFE0
S214004044FEF7A0BE08B500210B20FEF799FEBDE8DA
S2140040540840FEF798BE032000F078BA08B5FFF7CC
S214004064E1FA044B0B289ABF00B203EB8000184613
S21400407408BD00BFEA4B030008B5FFF7D9FA044BA6
S214004084C0F30F2253F82230C0B203EB800008BD01
S214004094B44B030010B5FFF7C5FA0446FFF7C8FA99
S2140040A4C0B228B9012C24D164F07F04E4B216E02F
S2140040B4072CF9D801A353F824F000BFE34000000E
S2140040C4AD400000E1400000E7400000E74000008B
S2140040D4EB400000EF400000F340000009242046B7
S2140040E410BD0224FBE70324F9E70B24F7E70624B4
S2140040F4F5E70446F3E700BF07282DE9F84F044622
S2140041040F462DD0082808BF022421460120FDF7BB
S2140041143AFDFFF745FE651ED5F1000848EB050895
S21400412400B3012C1ED1A520FFF730FE2646EFF380
S2140041341089012383F31088EFF3118A4FF0000BE4
S2140041448BF31188354D404607F05EF8631EC5F8BC
S21400415400B0042B59D8DFE803F00E4D4D5155003E
S2140041640324D2E7FFF71CFE18B1FFF721FE002652
S214004174DDE70646DBE72A4A136923F004031361E6
S21400418430BF284AD2F82434D2F8202413409BB2F5
S214004194254A2B60D2F80011480102D5116849015E
S2140041A406D4D2F80011880105D51268910102D50B
S2140041B443F480332B601C4BD3F80021520506D5FC
S2140041C41B685B0542BF2B6843F400332B601EB1AB
S2140041D40121164803F095FE404607F035F8CFB1A6
S2140041E48AF3118889F310882146BDE8F84F002029
S2140041F4FDF7C9BC012002F0C7FDC2E7012002F0AA
S214004204D7FDBEE702F0D6FDBBE788210848FFF7D6
S214004214B1F8B6E787F31088E6E700BF042D002060
S21400422400ED00E000C0034000E100E00080014A29
S2140042341A4C030042F22041044AD2F820341B0CE4
S2140042441B045350024A1360704700BF00C003406B
S214004254002D00200021FFF74FBFFFF7FBBF000033
S2140042642DE9F04F89B00DF0EBFE0746002840F02C
S214004274DD806F4E6F4D3168286814F0EDFF0446FC
S214004284002827D033683C46D3E900019A691268AF
S2140042949047336804A89B699B6898473368022054
S2140042A49B69DB689847326805985368E7B2B3FBA6
S2140042B4F0F3BB42916904F1010442D8CB680020B4
S2140042C4984733689B695B6898473168286814F098
S2140042D4C3FF04460026DFF88891002C53D1564BC2
S2140042E44FEA8608F35C002B31D1A246534BF35CAD
S2140042F40193534B03EB080B019B5FFA8AF7BB420F
S214004304286853D84F4BF35C002B3CD04C4B019F92
S2140043149844FBB27E2B286835D8D8F8003003AA18
S21400432407EB030A514602AB15F0D0F948452AD0EC
S2140043345146286815F010FA013704460028E8D0DC
S21400434421E012680B6907FB00209847ABE73C4B5B
S21400435403AA53F82670286802AB394615F0B6F956
S214004364484507D078B9039B012B0CD039462868FA
S21400437415F0F2F9344B394653F8083028681A68B1
S21400438415F0CEF804460136272EA6D1B4FA84F3E7
S2140043942E4A5B0913702E4B9C4241D02DD8002C1C
S2140043A432D0013B9C423FD0C5242DE0DBF80030E0
S2140043B403AA1F44394602AB15F088F948450AD0CB
S2140043C410B10AF1010A97E7039B8BB9214B029AB5
S2140043D4F35C9A42F5D01F4B1B4A9B5D52F80820AB
S2140043E43946286815F00EF80028EAD0044689E70E
S2140043F43946286815F0B0F9EDE7174B9C4211D002
S21400440404339C42D0D1C1242B681B7C23B14FF4C7
S21400441489711248FEF7AEFF204609B0BDE8F08F5A
S214004424C324F1E7C424EFE7C224EDE7C624F3E788
S214004434E01E0020DC1E0020F427030030270300C3
S214004444442803001B28030058270300082D0020D7
S21400445402E000F0E028030004E000F0964C0300BD
S2140044640BE000F0262970B506460C4615461AD809
S214004474144A127822B3144A1068144A52F82110C7
S214004484134A125D3AB1324615F098F8C0B1BDE849
S2140044947040FDF746BF7F2D08BF002532462944ED
S2140044A414F0FAFFF2E7FF2903D9BDE87040FFF7DE
S2140044B499BB40F24511BDE870400648FEF75ABF66
S2140044C470BD00BF082D0020DC1E00204428030019
S2140044D4F4270300964C03002628F8B504460D4638
S2140044E4164619D81449097829B31449144F08688C
S2140044F4144951F824103C5D3CB1126815F010F8CC
S214004504C8B1BDE8F840FDF70CBF7F2D08BF0025F5
S214004514294414F077FFF3E7FF2805D91A463146F5
S214004524BDE8F840FFF782BB4FF4BC71BDE8F84025
S2140045340548FEF71FBFF8BD082D0020DC1E00202E
S214004544F427030044280300964C030008B5084BE0
S2140045541B7863B1074B002253F82010064B1868EB
S21400456415F06CF818B1BDE80840FDF7DABE08BDD2
S214004574082D002044280300DC1E002070B51646D3
S21400458485180AB9304470BD01F00F030A2B34BFF6
S21400459430243724013A2344090905F8013DD2B2F0
S2140045A4EFE70000F0B5F9B100281CDA2D23B0F1CE
S2140045B4004F137000D04042012115E0801B864254
S2140045C4ECB205F10105F9D904B927B101274D1C50
S2140045D430345454E9B20133092B09D130305054E5
S2140045E40131C8B2F0BD002100231F46DFF808C021
S2140045F45CF823600025E2E70C4D03002DE9F04F3C
S2140046044FF0000B95B002AC81468A4617461D460D
S2140046145E46A0463B7863B902ABE41AE4B222468F
S21400462419465046C847002840F093803444E0B208
S21400463490E0252B13D0BBF1000F14D12370013466
S21400464412AB9C426DD3A4EB0804E4B22246414666
S2140046545046C84700287CD12644F6B260E0BBF139
S214004664000F00D101373B78632B00F092801BD8F3
S214004674392B09D8302B80F09E80002BCCD0252BEC
S21400468451D04FF0000BDBE7582B00F08B80622BE9
S214004694F7D14FF0000B2B6801936B680093009BD7
S2140046A49B4543D10835ECE7702B1ED017D8642BF6
S2140046B401D06C2BE5D16C2B05F1040B28686CD16A
S2140046C47B78752B14BF0121002101D0642B00D107
S2140046D401372246FFF766FF04445D46D1E7752B93
S2140046E4E9D0782B5ED0732BCBD1A4EB0804E4B2CC
S2140046F4224602A9504605F1040B2D68C84740BB64
S2140047042644F6B2C4B22B5D0130002BFAD1224601
S21400471429465046C847E0B95D4683462644F6B265
S2140047244446013776E723700134AAE7019B204606
S21400473413F80B100222FFF721FF12AB984204462F
S2140047440ED3A0EB0804E4B2224641465046C847BE
S21400475418B1002015B0BDE8F08F26444446F6B2E2
S214004764009B013B5B4582BF20232370013412ABC0
S2140047749C420BD3A4EB0804E4B2224641465046BE
S214004784C8470028E5D126444446F6B20BF1010B8F
S21400479485E72B6804352370C6E7752B0CBF00210C
S2140047A4012196E7204602222978FFF7E7FE05F165
S2140047B4040B044691E77A7802F0DF02582A19D1EE
S2140047C4322B07F1010B09D10422204629882F1D1C
S2140047D4FFF7D4FE3D4604465F4652E7342B09D124
S2140047E42F1D2D680422290C2046FFF7C7FE04223D
S2140047F4A9B2EDE74FF0010B22E70EB403B503AA06
S21400480452F8041B019206F0B5FDC0B202B05DF882
S21400481404EB03B0704700000149FFF7EEBF00BF8A
S214004824C92103000EB433B505AA52F8041B054685
S214004834019206F09FFD04462846FFF7EDFFE0B21E
S21400484402B0BDE8304003B0704708B506F092FDEC
S214004854C0B208BD2DE9F04F9B46584B85B01B7877
S214004864064689461546109F9DF844A0DDF85080FC
S214004874002B00F09280072A00F291800E9B002BFA
S21400488400F08D800F9B002B00F08980129BB3F5FF
S214004894006F00F38480012801D1002F7FD0484B9D
S2140048A403EB05131B7B002B7BD0464C1022002108
S2140048B468462DF02FFA04EB45141022B9F1000FC8
S2140048C45CD1494620462DF025FAA37843F0100320
S2140048D4A370E37843F03003E370BAF1000F03D11A
S2140048E4DBB243F00303E37036496A01129B885A2D
S2140048F4013B63F30E100E9B01EB020C8852CCF8BE
S21400490408300F9B9DF84C10CCF804309CF803300C
S214004914012E61F38303CDF800B08CF8033042D146
S21400492413230CF1100ECCF80C309CE80F008EE824
S2140049340F006FF00301DCF81C20B9F1010F61F3DE
S2140049449F02CCF81C20CCF8147004D10F9BCCF832
S2140049540470CCF81830002719492A018B1841F83E
S2140049640280159A28465A609F605E7322466946FE
S21400497402F052FF384605B0BDE8F08F002120460D
S2140049842DF0C8F91023A3700323E370BAF1000FC7
S214004994AAD1DBB243F03003A5E70B48EBE70B489C
S2140049A4E9E70B48E7E7B8F1000FD4D19CF80230EA
S2140049B468F304138CF80230CDE700BF8C2E002079
S2140049C40C2D00208C2D0020028000F0018000F0C9
S2140049D4078000F038B5104B05461B78BBB1C0B154
S2140049E402F06BF900230D4901EB0312147B3CB96A
S2140049F42B6001231460137302F065F9204638BD5A
S214004A040133082BF0D102F05EF90548F7E70548B4
S214004A14F5E70548F3E700BF8C2E00200C2D002098
S214004A24048000F0028000F0018000F038B502F047
S214004A3444F9002305460A4AD1180C7B5CB91033A6
S214004A44802BF9D102F09AFE064B28461C7002F021
S214004A543AF9204638BD284602F035F90248F9E707
S214004A640C2D00208C2E0020058000F00D4B10B578
S214004A741B78044693B1072812D802F01EF90A4B95
S214004A8403EB04131A7B2AB100241C7302F01BF9EF
S214004A94204610BD02F017F90448FAE70448F8E780
S214004AA40448F6E78C2E00200C2D0020068000F02B
S214004AB4028000F0018000F0164B13B5186800233E
S214004AC401908DF8043002F0F8F8134B1C7824B1EA
S214004AD402F0F9F8114802B010BD01221A7002F073
S214004AE4F2F80F4B1C731C7783F82C4083F83C4079
S214004AF483F84C4083F85C4083F86C4083F87C4031
S214004B0404230DEB03008DF8073002F05BFE20460D
S214004B14E1E700BF304D03008C2E0020038000F038
S214004B240C2D002010B588B00E9C009207940D9CA6
S214004B34024606949DF8304005940B9C04949DF818
S214004B44284003940024CDE9013420460B46214630
S214004B54FFF780FE08B010BD10B588B00E9C00921A
S214004B6407940D9C024606949DF8304005940B9CD1
S214004B7404949DF8284003940024CDE9013420468B
S214004B840B460121FFF766FE08B010BD08B50A4BB8
S214004B941B785BB107280BD8084B03EB00131B7B71
S214004BA443B1002102F0FEFD002008BD0448FCE7E6
S214004BB40448FAE70448F8E78C2E00200C2D002061
S214004BC4028000F0018000F0078000F008B50A4B70
S214004BD41B785BB107280BD8084B03EB00131B7B31
S214004BE443B1012102F0DEFD002008BD0448FCE7C5
S214004BF40448FAE70448F8E78C2E00200C2D002021
S214004C04028000F0018000F0078000F008B50A4B2F
S214004C141B7853B107280AD8084B03EB00131B7BF9
S214004C243BB102F049FE002008BD0548FCE70548F4
S214004C34FAE70548F8E700BF8C2E00200C2D00206C
S214004C44028000F0018000F0078000F00D4B1B7816
S214004C5493B1072812D889B10B4B03EB00131B7BC7
S214004C6473B10A4BDA6A012303FA00F010401ABF44
S214004C7400200B7008707047054870470548704759
S214004C84054870478C2E00200C2D002000000440A0
S214004C94028000F0018000F0078000F00B4B10B596
S214004CA41B780C4663B107280CD859B1084B03EBA4
S214004CB400131B7B43B102F011FE2060002010BDE0
S214004CC40448FCE70448FAE70448F8E78C2E00207A
S214004CD40C2D0020028000F0018000F0078000F018
S214004CE42DE9F843174B1F6D5B6D1F4000D5FEE79B
S214004CF401260025144CDFF85480DFF85490374220
S214004D0417D02368C8F800609BB1A16862680131B7
S214004D14A16028469847637B012B0AD148B909EB62
S214004D244513197B1A7F60F3410160F3410219733E
S214004D341A770135082D4FEA460604F11004DED131
S214004D44BDE8F883000004400C2D002050200440E9
S214004D548C2D002070B504460125084E04B970BD9C
S214004D6494FAA4F0B0FA80F005FA00F324EA0304F7
S214004D7456F82030002BF1D09847EFE7902E00200D
S214004D844FF00072044BC3F880211A604FF0806223
S214004D94C3F880211A60704700E100E038B5044685
S214004DA40D4601F08AFF034B43F82450BDE8384013
S214004DB401F089BF902E0020084BD3F82404D3F8C2
S214004DC42024104042F2204220F42A5020F02A00E8
S214004DD44004400C9850FFF7BDBF00BF00C003401E
S214004DE4084BD3F82404D3F82024104042F220427F
S214004DF420F4AA4020F055000004000C9850FFF759
S214004E04A9BF00BF00C00340104A30B51368416113
S214004E141546ABB91060836011E0091B9C684161BC
S214004E241A467CB123465C698C42F6D9002CF4D031
S214004E3452B19060836013B15A69511A596130BDFA
S214004E440022F0E72346F4E72860F3E7E42E002088
S214004E5410B500F0B1FA094B094A196831B1136864
S214004E64C41A4B69A34203D31B1B4B61106003E0B7
S214004E74C01A002310604B6110BD00BFE42E002052
S214004E84D42E0020074B10B51B6802205C69064B25
S214004E941B681C4400F0C4FA2046BDE8104000F02D
S214004EA493BA00BFE42E0020D42E002070B59DF8DF
S214004EB41450164605710025049A8560BDF81850EE
S214004EC40446C5800260C0E903360D4629B961610F
S214004ED40BB11146984796B1354601F0EEFE0646EC
S214004EE4FFF7B6FF29462046FFF78EFF054B1B68E3
S214004EF4A34201D1FFF7C6FF304601F0E4FE0020CE
S214004F0470BD00BFE42E002000210C4A13687BB15C
S214004F1483420AD1836879B18B6083681BB15A696E
S214004F2441690A445A610020704719469B68EEE7B7
S214004F340028EFD0022070471360EEE7E42E00202E
S214004F4470B501F0BAFE114D06462C78CCB9104B5C
S214004F541C60104B1C60104B1C8000F0F3F9012001
S214004F6400F05EFA00F0AAFA0C4B0246186040F213
S214004F74E73123460A482CF0EBFC0A4B1860012361
S214004F842B70304601F09FFE002070BDD02E00200E
S214004F94E42E0020D42E0020DC2E0020E02E00205C
S214004FA418FCFFFFD82E00202DE9F0410546F8B185
S214004FB401F083FE0F4F0646FFF74AFF2846D7F850
S214004FC40080FFF7A1FF044628B1304601F07BFEBF
S214004FD42046BDE8F081A8453B6803D123B1FFF71E
S214004FE451FFF2E7002BF0D1022000F025FAECE79F
S214004FF42224EDE7E42E0020F0B50D4685B01646D3
S2140050041F46044680B1FFF7CFFFBDF82C300022C0
S21400501402939DF828302946CDE90073204633468E
S214005024FFF744FF05B0F0BD2220FBE738B50C4679
S214005034054698B191B100230B7001F03EFE0121A4
S214005044074B1B680BB122781AB101F03CFE002016
S21400505438BD9D420CBF21709B68F3E72220F7E71A
S214005064E42E0020F0B51F46002387B00D461646F2
S2140050748DF817300446A0B10DF11701FFF7D6FFDF
S2140050849DF817207AB9BDF83430294602939DF866
S21400509430302046CDE900733346FFF707FF07B0EC
S2140050A4F0BD2220FBE70320F9E70000F8B50C4624
S2140050B40646C8B1C1B101F000FE0546FFF7C8FEBA
S2140050C473692360134B1B68B3420FD023B9284679
S2140050D401F0F9FD03201CE0596922689B680A4424
S2140050E42260F1E700230FE0222012E0276800F098
S2140050F463F9094E3368C01A8742F3D900F05CF9A5
S2140051043368C01A23681B1A2846236001F0DBFDA7
S2140051140020F8BDE42E0020D42E002070B501F047
S214005124CCFD064600F048F9094B05461C880120CC
S214005134A4B200F099F918B100F03EF9054601341E
S214005144304601F0C0FD0022214642EA050070BD4B
S214005154DC2E00200A4B10B51B680C4683420CD389
S214005164084B4FF47A7219680023A0FB01012CF057
S214005174EFFB01302060002010BD2120FCE700BFBB
S214005184D82E0020E02E0020104B10B51A684FF4DD
S2140051947A73A0FB0301A2B1531E134211D1B2FAD3
S2140051A482F2C2F11F02C2F12004A2F1200301FA26
S2140051B404F420FA02F2224321FA03F342EA03003B
S2140051C410BD00232CF0C4FBFAE700BFE02E00203D
S2140051D400000000F8B516461BA3D3E900238B4253
S2140051E408BF82422AD3174B1A684FF47A73A0FB7F
S2140051F4034503FB0155C2B1531E13EA020014D142
S214005204B2FA82F2C2F11F02C2F12007A2F1200113
S21400521424FA02F305FA07F73B4325FA01F10B4398
S21400522425FA02F2C6E90032F8BD002320462946D4
S2140052342CF08EFBC6E900010020F5E72120F3E7F9
S214005244AFF30080E02E0020EFA7C64B378941005D
S214005254C2072DE9F84F04460BD5374A13880133A5
S2140052649BB21380FFF7F4FD344B1B680BB1FFF7BA
S21400527409FEA3075DD500F09FF8314E0746356852
S2140052844FF0000A451B01F018FD8046DFF8AC908D
S214005294D9F80040002C48D06369AB4209D95D1B9D
S2140052A465613760FFF7EEFD4046BDE8F84F01F054
S2140052B40ABD23462A4637605969914209D81879A7
S2140052C494F804C0521A844588BF1C469B68002B79
S2140052D4F2D1404601F0F7FCD4F81480C4F814A0C8
S2140052E401F0EBFC83462046FFF70EFE584601F01D
S2140052F4EAFC23694BB101F0E0FC834621692046B1
S214005304FFF782FD584601F0DEFCE36813B121681E
S2140053142046984700F050F84744ED1B04460544E1
S21400532401F0CBFC27468046B2E7022000F084F862
S214005334BAE7BDE8F88F00BFDC2E0020E42E00207C
S214005344D42E00201FB50024184B18689A880290A3
S21400535453F8060FADF80C201B79009002A88DF8C0
S21400536404308DF808408DF80C4002F041FB694685
S21400537401208DF8004002F0FFFA4FF090431F2101
S2140053849A6922F01F029A61094A11609A6A12F019
S2140053940802FBD11A62012002F008FB4FF4806277
S2140053A4044BC3F880211A6004B010BD344D0300CA
S2140053B41420004800E100E04FF090439A6A120778
S2140053C4FCD4186A704700004FF09042936A19079D
S2140053D4FCD4136A116C5269120704D4CA1A022A3E
S2140053E401D899420ED1C21A012A98BF981CB0F16E
S2140053F4FF3F28BF01304FF0904318649A6942F08B
S21400540408029A61054A13783BB14FF09041CB6B82
S21400541443F00203CB63002313707047981E0020EA
S21400542482074FF0904200F00103916948BF43F0B1
S21400543408030B4393617047830700F001020AD503
S2140054440121084B42F0080219704FF09041CB6BD3
S21400545423F00303CB634FF090418B6923EA0203E6
S2140054648B617047981E00204FF0904301285B69BB
S21400547404D0022805D1C3F3C000704703F001002E
S214005484704700207047000010B501F016FC4FF07E
S214005494904304465B691A07074A03F0010003F0C9
S2140054A40D0348BF40F002001360FFF7D1FE20460C
S2140054B4BDE8104001F007BC142000481B2001F092
S2140054C40DB90000002211462D48F0B503682D4D95
S2140054D454592CB11E68AC18002E3DD12346012128
S2140054E40832282AF4D101B1036000221446264962
S2140054F4264E0B6895592DB11F68B518002F32D16A
S2140055042B4601240832282AF4D104B10B60006823
S2140055140368002B2FD04FF04022936F007923F0BE
S214005524FF7323F4803343EA00439367184B4FF02A
S214005534004209681A600B68FBB14FF04022936F73
S214005544097923F4FF7323F001030B439367104B8D
S2140055544FF080421A60F0BD1E792779B74284BFA7
S21400556423460121BCE71F7995F804C0BC453CBF1F
S2140055742B460124C6E7074BD9E7064BE8E700BFEE
S214005584EC2E0020FC2E0020F02E0020242F0020DD
S214005594685000406860004010B5012228240F4B74
S2140055A400211A700E4822462CF0B4FB2246002135
S2140055B40C482CF0AFFB0C4B0C4A13600C4A1360DF
S2140055C44FF040430B4A1360536020220A4BC3F843
S2140055D480211A60FFF776FF002010BDE82E002019
S2140055E4FC2E0020242F0020F42E0020EC2E002079
S2140055F4F02E00206460004000E100E04FF04022FE
S214005604D2F88800D2F88830C0F38800C3F3880341
S2140056149842F5D16FF48873184440B2704700007E
S2140056244FF04022936E526E10B5134013F0804232
S21400563411D0114B1B681C682CB1002119605960ED
S214005644FFF7DCFFA0474FF080420C4B1A60BDE822
S2140056541040FFF737BF002BF9DA094B1B681C68AC
S2140056642CB11A605A60FFF7C9FF0121A047034B0B
S2140056744FF00042EAE700BFF02E002064600040CE
S214005684EC2E0020FFF7CCBF012203685A619A690A
S214005694D207FCD541F2AC52042103795B0103F135
S2140056A4804303F5703399507047000038B141B118
S2140056B4013AB2F5006F044838BF0020704703482B
S2140056C470470148704700BF037000F0027000F096
S2140056D438B504460D4601F0F0FAA28892B222B913
S2140056E42A6001F0F0FA064838BD1422638802FBEB
S2140056F4034308332B6001F0E6FA0020F4E700BF0A
S2140057040B7000F038B504460D4601F0D6FAA388AF
S2140057149BB223B92B6001F0D6FA0C4838BD14228C
S2140057246388E18802FB034308332B6063885A1CB2
S21400573492FBF1F301FB13239BB26380A388013B26
S2140057449BB2A38001F0BFFA0020E7E70B7000F0DD
S21400575490F83130022B0BD13022437F90F8210091
S2140057645A43044B9B5823FA00F000F0010070479C
S2140057740020704714C00340002313B51C4A52F897
S214005784234094F8211081420ED00133042BF6D125
S21400579402B010BD0028FBD19DF80730002BF7D0CF
S2140057A4A068FFF7F3F9F3E794F83130022BEFD152
S2140057B42046FFF7CDFF637E2076022BE8D194F8CF
S2140057C42E3003F0FF02002BE2D102A901F8012DCE
S2140057D4A068FFF73BFA237E1BB194F82F30002B0A
S2140057E4D8D00023A06884F82F30FFF7EFF9CFE76E
S2140057F44C2F0020012230B590F8324087B080F854
S2140058042C207CB9094D0368CDE9024504904C6808
S2140058142433CDE900240A684169C068FFF79CF97F
S21400582407B030BD002380F82C30F9E7E5600000AF
S214005834012330B590F8324087B080F82D307CB91B
S214005844094D0268CDE9024504904C683C32CDE926
S21400585400340B6801698068FFF764F907B030BD4F
S214005864002380F82D30F9E771580000F7B5906AE8
S21400587401A91446FFF72CFF144B984220D00025AC
S214005884019B1D619D6001F018FA019A0746D668CF
S21400589426B1D2E9002329462046B04701A9A06ACA
S2140058A4FFF730FFA06A83889BB263B101A9FFF7B4
S2140058B40FFF01992046FFF7BBFF384601F003FAB5
S2140058C4012003B0F0BD84F82D30F6E70B7000F02D
S2140058D4F8B5044617460D4601F0EFF9A388E288AA
S2140058E406469A4205D800233B6001F0ECF91648B8
S2140058F4F8BD1422238805F1100C02FB0343083379
S2140059042A4603CA624518605960154603F108031F
S214005914F6D11068142218602388E18802FB03433A
S21400592408333B60238830465A1C92FBF1F301FB94
S21400593413239BB22380A38801339BB2A38001F078
S214005944C2F90020D4E700BF0A7000F02DE9F34145
S2140059540D460446002800F0868001F0AEF9012DBD
S214005964064637D1A36A9B889BB2002B39D0A06821
S214005974FFF74CF90023A06A84F82D3083889BB285
S214005984002B34D1226893699B04FCD5023D012D7B
S2140059941BD8E068FFF73AF90023606A84F82C30D5
S2140059A483889BB2002B41D194F83130032B0CD062
S2140059B442F2AC52042123795B0103F1804303F5E0
